:020000040800F2
:10000000007201209D010008C5A60008A701000894
:10001000C9A500083D2900084906010800000000A4
:10002000000000000000000000000000BDC6000845
:100030002951000800000000B3010008B5CE0008F7
:10004000B7010008B7010008B7010008B7010008B0
:10005000B7010008B7010008B7010008B7010008A0
:10006000B7010008B7010008B7010008B701000890
:10007000B7010008B7010008DD4300083545000856
:10008000B7010008B7010008B7010008B701000870
:10009000712A0008B7010008B7010008B70100087D
:1000A000B7010008B7010008B7010008B701000850
:1000B000B7010008B7010008B7010008B701000840
:1000C000B7010008B7010008B7010008B701000830
:1000D000DDBF0008C5E0000831E40008B9E500080C
:1000E00085700008B7010008B7010008B7010008D3
:1000F000B7010008B7010008B7010008B701000800
:10010000B7010008B7010008B7010008B7010008EF
:1001100009D50008D9D60008B7010008B7010008C2
:10012000B7010008B7010008B7010008B7010008CF
:10013000B7010008B7010008B7010008B7010008BF
:100140009D2D0008B7010008B701000855A7000859
:10015000B7010008B7010008B701000825E700084B
:10016000B7010008B7010008B7010008B70100088F
:10017000B7010008B7010008B7010008B70100087F
:10018000B7010008B7010008DFF80CD000F0C2FD8D
:1001900000480047F94701080072012006488047DF
:1001A00006480047FEE7FEE7FEE7FEE7FEE7FEE75C
:1001B000FEE7FEE7FEE7FEE7CDCE00088901000876
:1001C000F0B5002101220023002400258E4E767810
:1001D0008D4FBF7846EA0726C6F30A068B4F3E804E
:1001E000894EB678F610884FFF7846EA4716C6F370
:1001F0000A06864F7E80844EF678B611824F3F798C
:1002000046EA8706804F7F7946EA8726C6F30A06C4
:100210007E4FBE807C4E767976107B4FBF7946EA62
:10022000C716C6F30A06794FFE80774EB6793611A7
:10023000754FFF7946EA0716C6F30A06734F3E81EB
:10024000714EF679F611704F3F7A46EA47066E4FC7
:100250007F7A46EA4726C6F30A066C4F7E816A4ECD
:10026000767AB610684FBF7A46EA8716C6F30A0652
:10027000664FBE81644EB67A7611634FFF7A46EAC6
:10028000C706624FFE81604E367B5F4F7F7B46EA3A
:100290000726C6F30A065D4F3E825B4E767BF6105C
:1002A000594FBF7B46EA4716C6F30A06574F7E8270
:1002B000554EB67BB611544FFF7B46EA8706524F28
:1002C0003F7C46EA8726C6F30A06504FBE824E4E52
:1002D000367C76104C4F7F7C46EAC716C6F30A067A
:1002E0004A4FFE82484E767C3611474FBF7C46EA25
:1002F0000716C6F30A06454F3E83434EB67CF611F9
:10030000414FFF7C46EA47063F4F3F7D46EA47267E
:10031000C6F30A063D4F7E833B4E367DB6103A4FFC
:100320007F7D46EA8716C6F30A06384FBE83364EEF
:10033000767D7611344FBF7D46EAC706334FFE8384
:10034000314EF67D3E8400200AE0304E36F81060D3
:1003500006F5FA7636B22D4F27F81060461CF0B23B
:100360001128F2DB294EB6F92060B6F5FA7F06D0E7
:10037000264EB6F9206040F2F717BE4203D10026A0
:10038000234F3E7002E00126214F3E70F0BD30B594
:1003900005462048007810B1012832D110E00F2D19
:1003A0000DD100201C490870084601780078401CD7
:1003B000194A10701948455401201649087020E068
:1003C000154801780078401C134A107013484554B2
:1003D00010460078192813DB1048007E58B9002415
:1003E00005E00E48005D08490855601CC4B2192C90
:1003F000F7DBFFF7E5FE00200649087006490870A4
:1004000000BF00BF30BD00000C10002026100020EF
:100410004A1000204C1000204D100020F20F002048
:10042000DFED300AB5EEC00A60EE200ABDEEE01A3C
:1004300011EE100AF1EE10FA38BF401E00EE100A5D
:100440009FED291AB8EEC00A70EEC00A20EE810AAC
:10045000BCEEC00A10EE100A00EE100A0028B8EE3A
:10046000C00A10EE810AB8BF002004DBB0F5807F1F
:10047000C8BF4FF480701D4960EE000AB6EE001A46
:10048000DFED1C2A9FED1A2A60EE011A60EE225A57
:1004900020EE813A20EE022A21EEA01A01EB800024
:1004A00073EE655A62EE202AB7EE006A33EE003A28
:1004B000D0EC043A76EE611A71EE600A35EEE20A8B
:1004C00033EE413A32EEC21A70EEA10A20EE230A50
:1004D00064EE831A04EE200A45EE011A31EE800A1A
:1004E0007047000083F9223E0000804360820108CB
:1004F000ABAA2A3EABAAAA3EDFED300AB5EEC00A8F
:1005000060EE200ABDEEE01A11EE100AF1EE10FACC
:1005100038BF401E00EE100A9FED291AB8EEC00A3F
:1005200070EEC00A20EE810ABCEEC00A10EE100A7E
:1005300000EE100A0028B8EEC00A10EE810AB8BF1B
:10054000002004DBB0F5807FC8BF4FF480701D49E8
:1005500060EE000AB6EE001ADFED1C2A9FED1A2AA3
:1005600060EE011A60EE225A20EE813A20EE022A55
:1005700021EEA01A01EB800073EE655A62EE202A8C
:10058000B7EE006A33EE003AD0EC043A76EE611A28
:1005900071EE600A35EEE20A33EE413A32EEC21AEB
:1005A00070EEA10A20EE230A64EE831A04EE200AFC
:1005B00045EE011A31EE800A7047000083F9223EB1
:1005C0000000804370860108ABAA2A3EABAAAA3E6F
:1005D00040EA01039B0703D009E008C9121F08C0C5
:1005E000042AFAD203E011F8013B00F8013B521E45
:1005F000F9D27047D2B201E000F8012B491EFBD2BC
:1006000070470022F6E710B513460A46044619461D
:10061000FFF7F0FF204610BD2DE9FE4F804681EA2E
:100620000300C00F0C46009021F0004123F000456C
:10063000B8EB0200A94105D24046214690461C462F
:100640000B46024623F00040104347D0270DC7F366
:100650000A00C3F30A510290401A019040286BDA55
:10066000C3F3130040F4801B0098924620B100238E
:10067000D2EB030A63EB0B0B01985946C0F1400221
:10068000504600F0EDF906460D4650465946019A8F
:1006900000F005FA10EB08006141002487EA1152CE
:1006A00084EAE7731A4340D0009A62B3019A012AA0
:1006B0004FEA075215DC001B61EB02014FF00042CC
:1006C00002EA0752CDE90042001C41F58011324692
:1006D0002B4600F03CFA03B0BDE8F08F40462146BF
:1006E000F9E7001B61EB0201001C41F580130018C3
:1006F0005B412018A2F5001747EB030140EAD570D3
:10070000B6196D4111E06D084FEA360645EAC0752D
:100710004FEA0752001B61EB0201001C41F58011FA
:1007200049084FEA30000019514132462B4603B0C8
:10073000BDE8F04F00F0FCB9009801224000002312
:10074000D0EB020263EBE073009821464FEAE074BD
:10075000B8EB000061EB0401E9E783F000435BE7DD
:1007600081F0004158E72DE9FE4F81EA030404F0CF
:10077000004421F0004100944FF0000B23F00043AF
:1007800050EA01045ED052EA03045BD0C3F30A547A
:10079000C1F30A552C44A4F2F3340194A0FB025493
:1007A000C1F3130141F48011C3F3130343F4801325
:1007B00001FB024400FB034E840A970A44EA815479
:1007C00047EA8357A4FB076802958D0A05FB078556
:1007D0004FEA932C04FB0C542705029D4FEA065860
:1007E00047EA1637B5EB08056EEB070C870E920E3D
:1007F00047EA811742EA8312A7FB0201B6EB0B011D
:1008000064EB00042B0D43EA0C335E1844EB1C50E0
:10081000DA465146E7FB0201C5F313044FEA0B33F6
:1008200043EA14534FEA0432019C43EA0603A4F15D
:100830000C040294009CCDE900B400F088F903B0E8
:10084000BDE8F08F00200146F9E72DE9F04D81EA7F
:10085000030404F0004B21F0004514464FF0000A59
:1008600023F0004150EA050220D054EA01021DD0D5
:10087000C5F30A570246C5F31303C1F31300C1F3CE
:100880000A5640F4801543F48013A7EB0608101BAA
:10089000D64608F2FD3873EB050002D308F10108D3
:1008A00001E092185B41B8F1000F03DA0020014625
:1008B000BDE8F08D00204FF48011064684460EE01E
:1008C000171B73EB050705D3121B63EB05030643E8
:1008D0004CEA010C49084FEA300092185B4150EA9B
:1008E0000107EDD152EA030012D082EA040083EA44
:1008F0000501084305D0101BAB4106D2012200239D
:1009000006E000224FF0004302E06FF001025310B6
:100910001AEB06004CEB085110EB0A0041EB0B01FF
:10092000BDE8F04D00F004B90EB5C10F80EAE070EB
:100930000844CA07002140F233438DE80E000A46FE
:100940000B4600F004F903B000BD0EB540F2334190
:1009500002910021CDE900110A460B4600F0F7F89C
:1009600003B000BD70B5C1F30A5201F00045002488
:10097000C1F3130140F2FF3341F480119A4201DACE
:10098000002070BD40F233439A42A2F2334203DCAE
:10099000524200F074F800E090402C43F1D0404205
:1009A00070BD00F0004230F000400AD0C10D01F5EA
:1009B0006071C0F3160042EA0151C20840071143BA
:1009C000704700200146704730B5041E71F10004E5
:1009D00004DB4FF00044404264EB0101141E73F14C
:1009E000000405DB1C464FF00043524263EB040356
:1009F0008B4208BF824230BD30B5041E71F1000445
:100A000004DB4FF00044404264EB0101141E73F11B
:100A1000000405DB1C464FF00043524263EB040325
:100A2000994208BF904230BD01F0004330B421F03C
:100A3000004150EA010206D00A0DA2F56072C1F32E
:100A40001301002A02DC30BC00207047440F44EA46
:100A5000C104C100E01830BC00EBC25000F031B856
:100A6000202A04DB203A00FA02F10020704791406E
:100A7000C2F1200320FA03F3194390407047202A63
:100A800004DB203A21FA02F00021704721FA02F338
:100A9000D040C2F120029140084319467047202AF5
:100AA00006DBCB17203A41FA02F043EAE07306E096
:100AB00041FA02F3D040C2F12002914008431946A6
:100AC00070470029A8BF7047401C490008BF20F0AC
:100AD0000100704710B4B0FA80FC00FA0CF050EA44
:100AE000010404BF10BC704749B1CCF1200421FAC5
:100AF00004F411FA0CF118BF012121430843A3EBC0
:100B00000C01CB1D4FEA00614FEA102042BF0020CC
:100B100010BC704700EBC35010440029A4BF10BCA8
:100B20007047401C490008BF20F0010010BC70470E
:100B300010B5141E73F1000408DA401C41F10001E5
:100B400092185B411A4301D120F0010010BD2DE93C
:100B5000F04D92469B4611B1B1FA81F202E0B0FA33
:100B600080F220329046FFF77BFF04460F4640EAB2
:100B70000A0041EA0B0153465A46084313D0114676
:100B800053EA010019D0C8F140025046FFF777FF41
:100B900005460E46504659464246FFF761FF084358
:100BA00005D0012004E020463946BDE8F08D002044
:100BB000054346EAE0762C4337430A986305E40A86
:100BC000A0EB08000022FD0A44EA47540A3002D58F
:100BD00000200146E9E7010510196941DDE90845F2
:100BE00000196941BDE8F04DA2E72DE9F04D002361
:100BF0001A461B1A8A4103DB00200146BDE8F08D2E
:100C0000C1F30A52C1F3130141F480154FF0000BF8
:100C1000D10702D100186D41521E0027044640F250
:100C2000FF11384601EB620A3E468046024600202C
:100C30004FF48011FFF723FFC2197141BB1846EB37
:100C40000100B4EB030C75EB000C04D3E41A65EB64
:100C5000000517460E46241908F101006D41804633
:100C60003428E3DDF91946EB0600091BA84103D23D
:100C70004FF0FF32134601E0002213461BEB070042
:100C800046EB0A51BDE8F04DFFF752BF2DE9FE4F8C
:100C9000C3F30A5701F000450024C1F30A56C3F319
:100CA0001303C1F3130143F4801312EB020AA646A7
:100CB00041F48011009543EB030CA7F1010B16E002
:100CC000B0EB0A0061EB0C01071E71F1000707DAB7
:100CD0004FF00008D0EB080085F0004568EB0101FB
:100CE000171A73EB0107EBD3761E001849415E45D6
:100CF000F6DA50EA010209D0CDE900E500221346F8
:100D00000296FFF724FF03B0BDE8F08F204600995C
:100D1000F9E70000064C074D06E0E06840F00103EB
:100D200094E8070098471034AC42F6D3FFF730FA46
:100D3000C08B0108E08B010870B58C1810F8015BBE
:100D400015F0070301D110F8013B2A1106D110F864
:100D5000012B03E010F8016B01F8016B5B1EF9D168
:100D60002B0705D40023521E0DD401F8013BFAE7EE
:100D700010F8013BCB1A921C03E013F8015B01F859
:100D8000015B521EF9D5A142D8D3002070BD21B11C
:100D9000826842F00102826003E0826822F0010270
:100DA000826070470021084A1168084A1140D0E962
:100DB00000231A4383681A43C3681A431143044A41
:100DC000C2F804137047000004230140E030FCFF28
:100DD0000020014030B50246002000235068104C2E
:100DE00020400D790C6844EA052420435060906847
:100DF0000C4C2040D1E903542C438D682C434D7991
:100E000044EA450420439060D06A20F470000C7DD1
:100E1000641EE4B2234340EA0350D06230BD0000B8
:100E2000FFFEFFFCFDF7FFC038B50446FE2C31D0B5
:100E30001948007870B311F0ACFC08B9002038BD37
:100E40000421684614F0F8F9042801D00020F6E7E0
:100E50009DF80000A04201D00020F0E79DF80100BD
:100E6000022801D00020EAE79DF800009DF801105B
:100E700008449DF802100844C043C5B29DF8030021
:100E8000A84201D00020DAE79DF80200034908706B
:100E900014F0C4F90120D2E7E20F0020E40F002093
:100EA00000B58DB0012105200AF03CFA01210802AD
:100EB0000AF078FA10200B9003208DF83000002003
:100EC0008DF833000BA9154806F02AF90121080214
:100ED0000AF078FA00214FF480700AF073FA0020CB
:100EE00007900A9009904FF48030089007A8FFF708
:100EF00059FF002001908DF808008DF8090003903B
:100F0000059001208DF8180001A90548FFF762FF40
:100F100001210348FFF73BFF0DB000BD0000024078
:100F2000002001401CB54FF4A06009F009FC0BF053
:100F30008BFF4648464B474A0121009046480EF039
:100F400008F809F00FFC0AF00BFF322009F024FC2E
:100F5000322009F01FFD08F0A9FC4FF4E1300FF03A
:100F600075FB3E480FF0E4FB14F002FA012060210B
:100F70003B4B3C4ACDE90010C1063B4809F0B0FAB2
:100F800001206421394B3A4ACDE900104FF020612D
:100F90003548183809F0A4FA36480FF0BDFA012296
:100FA00080213048001F0DF085FC62212E4809F099
:100FB000F5FA012280212E48001F0DF07BFC6621EE
:100FC0002948183809F0EAFA16F034FD642004F0D4
:100FD000ACF80BF097F90BF019F902F073FB02F083
:100FE0000FFC02F0A1FB02F033FC642004F09DF83A
:100FF00013F048F90FF06AFD642004F096F80AF047
:1010000065FA642004F091F80AF00EFD1A480068B1
:1010100018B15321002001F02FFCFFF741FF08F029
:10102000A7FC0023B0EE080A08220321012001F0EA
:1010300087FC0023B0EE080A08220321012001F0FA
:1010400021FE02F071FA01201CBD0000D00D00202D
:10105000100E0020740D0020A8B3002040420F00A5
:10106000B02D012004100140B8640240782E012008
:1010700004140140A0860100FC000020F8B50446DD
:101080000D46002704200090002604E0A05D3844AF
:10109000C7B2701CC6B2681EB042F7DC601910F807
:1010A000010CB84200D0F8BD2078BA2802D160788F
:1010B000BF2800D0F7E7A07821282ED101201A49B7
:1010C0000860002008616946204612F035FF164886
:1010D00080ED0F0A6946204612F02EFF124880ED7F
:1010E000100A6946204612F027FF0F4880ED110ACA
:1010F0006946204612F020FF0B4880ED0C0A694635
:10110000204612F019FF084880ED0D0A6946204676
:1011100012F012FF044880ED0E0AA078012800D1D9
:1011200000BF00BFBFE70000802101202DE9F0478C
:101130002DED068B82B0054688460026B146B246A4
:1011400004200190002405E0285D504400F0FF0ACF
:10115000601CC4B2A8F10100A042F5DC05EB080058
:1011600010F8010C504505D0002402B0BDEC068BF0
:10117000BDE8F0872878AA2802D16878AF2801D086
:101180000024F2E7A87801287ED1FE480068401CC0
:10119000FC490860A878FC4951F82000401CA97857
:1011A000F94A42F8210001A9284611F0D5FAF74979
:1011B00081F8E80501A9284613F0B2F9F349C8619E
:1011C00001A9284611F0C8FAF04981F8690501A97A
:1011D000284611F0C1FAED4981F8E90501A9284630
:1011E00011F0BAFAE94981F88C0601A9284611F0F4
:1011F000B3FAE64981F88D0601A9284611F0ACFA48
:10120000E24981F86B0501A9284611F0A5FADF49EA
:1012100081F86A0501A9284612F08EFEDB4880EDB0
:101220003E0A01A9284612F087FED84880ED3F0A01
:1012300001A9284612F080FED44880ED400A01A999
:10124000284612F079FED14880ED3A0A01A92846D5
:1012500012F072FECD4880ED3B0A01A9284612F03B
:101260006BFECA4880ED3C0A01A9284612F064FED4
:10127000C74880EDA70A01A9284612F05DFEC448C0
:1012800080EDA80A01A900E0C0E0284612F054FE53
:10129000BF4880EDA90A01A9284612F04DFEBC48BE
:1012A00080EDAA0A01A9284611F056FAB74981F83B
:1012B000680501A9284611F04FFA012801D1811EC5
:1012C00000E00121B348C0F8E41201A9284611F05A
:1012D00043FA012801D1811E00E00121AD48C0F888
:1012E000801801A9284611F037FA012801D1811E82
:1012F00000E00121A748C0F81C1E01A9284611F0F2
:101300002BFA012801D1811E00E00121A248C0F87A
:10131000E41201A9284612F00FFE9D4880ED190A3B
:1013200001A9284612F008FE994880ED1A0A01A981
:10133000284612F001FE964880ED1B0A01A92846B6
:1013400012F0FAFD924880ED1C0A01A9284612F01D
:10135000F3FD8F4880ED150A01A9284612F0ECFD37
:101360008B4880ED160A01A9284612F0E5FD884851
:1013700080ED170A01A9284612F0DEFD844880EDB1
:10138000180A01A9284612F0D7FD01A9284612F033
:10139000D3FD01A9284612F0CFFD01A9284612F07D
:1013A000CBFD01A9284612F0C7FDBCEEC00A10EE25
:1013B000100AC6B27548C06942F2107190FBF1F094
:1013C000724908730846C069097B40F2712211FB1B
:1013D00002F1A0EB0110642190FBF1F0C1B26B4867
:1013E0004173007F6949097B012211FB02F1A0EBE7
:1013F00001116648407B00EBC00202EB0010A1EB3C
:101400008000C1B26148817301F030BAA878212808
:101410007ED1A8785C4951F82000401CA9785A4A2E
:1014200042F8210001A9284611F096F9814601A948
:10143000284611F091F9064601A9284612F07CFDD4
:10144000564880ED040A01A9284612F075FD53485C
:1014500080ED050A01A9284612F06EFD4F4880ED87
:10146000060A01A9284612F067FD4C4880ED070ADC
:1014700001A9284612F060FD484880ED080A01A93C
:10148000284612F059FD454880ED090A01A9284671
:1014900012F052FD414880ED0D0A01A9284612F0D4
:1014A0004BFD3E4880ED0E0A01A9284612F044FD8E
:1014B0003A4880ED0F0AB9F1000F12D0012E03D186
:1014C0000120364908709FE7022E03D101203349DD
:1014D000487099E7032E97D10120304981F8000127
:1014E00092E701A9284612F027FDDFED2D0A20EE34
:1014F000200A2A4880ED2B0A01A9284612F01CFD7B
:10150000DFED270A20EE200A244880ED2C0A00E0B7
:1015100086E001A9284612F00FFDDFED210A20EE3A
:10152000200A1E4880ED2C0A01A9284612F004FD6D
:101530001A4880ED2E0A01A9284612F0FDFC174832
:1015400080ED2F0A01A9284612F0F6FC134880ED21
:10155000300A01A9284612F0EFFC104880ED310A4C
:1015600001A9284612F0E8FC0C4880ED320A01A9D6
:10157000284612F0E1FC094880ED330A01A928460B
:1015800010E00000780C002074360120C8260020EE
:10159000942A0020581000202C210020DC52012029
:1015A0000000804512F0C8FCFE4880ED340A01A915
:1015B000284612F0C1FCFB4880ED350A01A92846F7
:1015C00012F0BAFCF74880ED360A01A9284612F05D
:1015D000B3FCF44880ED440A01A9284612F0ACFCA3
:1015E000F04880ED450A01A9284612F0A5FCED4817
:1015F00080ED460A01A9284612F09EFCE94880EDDC
:10160000500A01A9284612F097FCE64880ED510ADD
:1016100001A9284612F090FCE24880ED520AF3E658
:10162000A87851287ED1A878DF4951F82000401CC5
:10163000A978DD4A42F8210001A9284611F08CF86A
:101640000646022E04D10121D84880F8EA15DBE6CF
:10165000012E04D10121D54880F8E815D4E6D348FD
:1016600090F8EA050028DAD101A9284612F064FCB6
:10167000CE4880EDF30A01A9284612F05DFCCB4864
:1016800080EDF40A01A9284612F056FCC74880ED07
:10169000F50A01A9284612F04FFCC44880EDF60A6D
:1016A00001A9284612F048FCC04880EDF70A01A9BC
:1016B000284612F041FCBD4880EDF80A01A92846F1
:1016C00012F03AFCB94880EDF90A01A9284612F057
:1016D00033FCB64880EDFA0A01A9284612F02CFC2A
:1016E000B24880EDFB0A01A9284612F025FCAF485C
:1016F00080EDFC0A01A9284612F01EFCAB4880EDE3
:10170000FD0A01A9284612F017FCA84880EDFE0A40
:1017100001A9284612F010FCA44880EDFF0A01A997
:10172000284600E01FE112F007FCA14880ED0D0AF9
:1017300001A9284612F000FC9D4880ED0E0A01A97F
:10174000284612F0F9FB9A4880ED0F0A01A92846B5
:1017500012F0F2FB964880ED100A01A9284612F01B
:10176000EBFB934880ED110A01A9284612F0E4FB37
:101770008F4880ED120A01A9284612F0DDFB8C4843
:1017800080ED130A01A9284612F0D6FB884880EDA7
:10179000140A01A9284612F0CFFB854880ED240ADF
:1017A00001A9284612F0C8FB814880ED250A01A94D
:1017B000284612F0C1FB7E4880ED260A01A9284682
:1017C00012F0BAFB7A4880ED270A01A9284612F0E8
:1017D000B3FB774880ED210A01A9284612F0ACFB43
:1017E000734880ED220A01A9284612F0A5FB704833
:1017F00080ED230A01A9284612F09EFB6C4880ED7B
:101800002C0A01A9284612F097FB694880ED2D0AA1
:1018100001A9284612F090FB654880ED2E0A01A927
:10182000284612F089FB624880ED730A01A9284618
:1018300012F082FB5E4880ED740A01A9284612F07E
:101840007BFB5B4880ED750A01A9284612F074FB0A
:10185000B0EE40AA01A9284612F06EFBB0EE40AAF5
:1018600001A9284612F068FBB0EE40AA01A928465B
:1018700012F062FB4E4880ED150A01A9284612F0CD
:101880005BFB4B4880ED160A01A9284612F054FB79
:10189000474880ED170A01A9284612F04DFB44483D
:1018A00080ED180A01A9284612F046FB404880ED59
:1018B000190A01A9284612F03FFB3D4880ED1A0A9B
:1018C00001A9284612F038FB394880ED1B0A01A90E
:1018D000284612F031FB364880ED1C0A01A9284643
:1018E00012F02AFB314880ED2A0A01A9284612F09D
:1018F00023FB2E4880ED2B0A032E2FD001A928466A
:1019000012F00EFE2949C8610846C06942F2107102
:1019100090FBF1F0254908730846C069097B40F245
:10192000712211FB02F1A0EB0110642190FBF1F098
:10193000C1B21E484173007F1C49097B012211FB83
:1019400002F1A0EB01111948407B00EBC00202EB51
:101950000010A1EB8000C1B214488173012113482B
:1019600080F8E81550E5A878612872D1A8780E496A
:1019700051F82000401CA9780B4A42F821000820A9
:1019800005F048FE0B4880ED000A01A9284610F03A
:10199000E3FE00EE100AB8EE400AB0EE40AA01A93C
:1019A000284609E0DC52012074360120C8260020B8
:1019B000942A0020740C002010F0CEFE00EE100AD5
:1019C000B8EE400AB0EE40AA01A9284610F0C4FEC5
:1019D000FC4981F8E80501A9284612F0ADFAB0EEFD
:1019E00040AA01A9284612F0A7FAB0EE40AA01A920
:1019F000284612F0A1FAB0EE40AA01A9284612F03A
:101A00009BFAB0EE40AA01A9284612F095FAB0EE72
:101A100040AA01A9284612F08FFAB0EE40AA01A907
:101A2000284612F089FAB0EE40AA01A9284612F021
:101A300083FAB0EE40AA01A9284612F07DFAB0EE72
:101A400040AA01A9284610F087FE012802D1811E74
:101A500001E0BFE00121DC48C0F8E41201A92846FA
:101A600010F07AFE012801D1811E00E00121D64844
:101A7000C0F8801801A9284610F06EFE012801D197
:101A8000811E00E00121D048C0F81C1E01A9284693
:101A900010F062FE012801D1811E00E00121CB4837
:101AA000C0F8E41201A9284612F046FAC54880EDB4
:101AB000F30A01A9284612F03FFAC24880EDF40A61
:101AC00001A9284612F038FABE4880EDF50A01A9AE
:101AD000284612F031FABB4880EDF60A01A92846E3
:101AE00012F02AFAB74880EDF70A01A9284612F049
:101AF00023FAB44880EDF80A01A9284612F01CFA2E
:101B0000B04880EDF90A01A9284612F015FAAD484F
:101B100080EDFA0A01A9284612F00EFAA94880EDD4
:101B2000FB0A01A9284612F007FAA94880ED120A1B
:101B300001A9284612F000FAA54880ED130A01A970
:101B4000284612F0F9F9A24880ED140A01A92846A6
:101B500012F0F2F9B0EE40AA01A9284612F0ECF911
:101B6000B0EE40AA01A9284612F0E6F9B0EE40AA6C
:101B700001A9284612F0E0F9924880ED2A0A01A94D
:101B8000284612F0D9F98F4880ED2B0A01A9284682
:101B900012F0D2F98E4880ED190A01A9284612F0F8
:101BA000CBF98B4880ED1A0A01A9284612F0C4F936
:101BB000874880ED1B0A01A9284612F0BDF9844828
:101BC00080ED1C0A01A9284612F0B6F9804880ED84
:101BD000260A19E4A87802287ED1A8787D4951F810
:101BE0002000401CA9787B4A42F8210001A9284620
:101BF00010F0B2FD814601A9284610F0ADFD7149F3
:101C000081F8E90501A9284610F0A6FD6D4981F883
:101C1000E805814601A9284610F09EFD694981F832
:101C20006A0501A9284610F097FD6749C1F890039D
:101C300001A9284610F090FD01466348C0F89413AE
:101C400001A9284610F088FD01465F48C0F89813A6
:101C500001A9284610F080FD01465B48C0F82C1908
:101C600001A9284610F078FD01465748C0F8301900
:101C700001A9284610F070FD01465348C0F83419F8
:101C800001A9284610F068FD01464F48C0F8C81E5B
:101C900001A9284610F060FD01464B48C0F8CC1E53
:101CA00001A9284610F058FD01464748C0F8D01E4B
:101CB00001A9284610F050FD4449C1F8900301A93C
:101CC000284610F049FD01464048C0F8941301A988
:101CD000284610F041FD00E08FE001463B48C0F887
:101CE000981301A9284612F027F9B0EE40AA01A9DD
:101CF000284612F021F9B0EE40AA01A9284612F0B8
:101D00001BF9B0EE40AA00242AE0002724E040F2AC
:101D1000671060432C4901EB800000F5647050F8B7
:101D2000270001280BD1811E40F267106043264A2C
:101D300002EB800000F5647040F827100AE00121F2
:101D400040F267106043204A02EB800000F56470A7
:101D500040F82710781CC7B2032FD8DB601CC4B230
:101D6000042CD2DBB9F1010F0BD1002407E00027CE
:101D700001E0781CC7B2032FFBDB601CC4B2042C4B
:101D8000F5DB104890F8E9050B2830D1B7EE000AD2
:101D90000C4880ED110A01A9284612F0CDF8094837
:101DA00080ED0D0A01A9284612F0C6F8054880ED1D
:101DB0000E0A01A9284612F0BFF8024880ED0F0A6A
:101DC000002411E0C8260020581000202C210020FB
:101DD000942A002074360120002701E0781CC7B245
:101DE000032FFBDB601CC4B2042CF5DB17E49FED72
:101DF000FE0AFE4880ED110A11E4A878312840D18E
:101E0000A878FB4951F82000401CA978F84A42F80C
:101E100021000120F7490870002048600120087265
:101E200001A9284610F098FCF249487201A92846F9
:101E300012F082F8EF4880ED030A01A9284612F05B
:101E40007BF8EC4880ED040A01A9284612F074F8EA
:101E5000E84880ED050A01A9284612F06DF8E5482A
:101E600080ED060A01A9284612F066F8E14880EDE7
:101E7000070A01A9284612F05FF8DE4880ED080A3B
:101E800070E5A87832287CD1A878D94951F820008B
:101E9000401CA978D64A42F821000120D549087093
:101EA0000020486001A9284610F056FCD14948722C
:101EB00001A9284610F050FCCE4981F838010846A7
:101EC000007A032892D00220087201A9284612F055
:101ED00033F8C84880ED0A0A01A9284612F02CF808
:101EE000C44880ED0B0A01A9284612F025F8C14824
:101EF00080ED0C0A01A9284612F01EF8BD4880EDBD
:101F00000D0A01A9284612F017F8BA4880ED0E0A0A
:101F100001A9284610F020FCB649C86501A9284649
:101F200010F01AFCB349086601A9284612F0F8FA25
:101F3000B049086401A9284612F0F2FAAD49C86315
:101F400001A9284610F008FCAA49486401A92846BE
:101F500010F002FCA749886401A9284610F0FCFB98
:101F6000A449086501A9284610F0F6FBA149C864F8
:101F700001A9284610F0F0FB9E49486501A92846B2
:101F800000E007E010F0E8FB9A49886500209A49D4
:101F9000087271E2A87852282CD1A878944951F897
:101FA0002000401CA978924A42F821009FED8E0A39
:101FB0008E4880ED190A00F5737080EDA30ABCEE1F
:101FC000C00A10EE100AC0B2884981F8C20381F835
:101FD000C3039FED850A084680ED110ABCEEC00AD6
:101FE00010EE100AC1B2814880F8E915814880F8E6
:101FF000241041E2A878532830D1A8787C4951F8C0
:102000002000401CA9787A4A42F821009FED760A08
:10201000764880ED190A00F5737080EDA30ABCEED6
:10202000C00A10EE100AC0B2704981F8C20381F8EC
:10203000C3039FED6D0A084680ED110ABCEEC00A8D
:1020400010EE100AC1B2694880F8E915694880F8B5
:1020500024100121042007F0CBFA0DE2A8785428BF
:102060000DD1A878624951F82000401CA978604A37
:1020700042F8210001215D4880F8E815F6E3A878D0
:1020800082287DD101205D4908609FED570A5C4898
:1020900080ED000A01205B4908609FED530A5A4811
:1020A00080ED000AA878524951F82000401CA97818
:1020B0004F4A42F8210001A9284610F04DFB064680
:1020C0000B2E02D101205149086001A9284610F0C9
:1020D00043FB0646BEB9002412E004EB8400C0EBCB
:1020E00084104B4901EB80008666012004EB8401DB
:1020F000C1EB8411464A02EB81014870601CC4B2F6
:102100000C2CEADB16E0002412E0002104EB840032
:10211000C0EB84103E4A02EB80008166002004EB95
:102120008401C1EB841102EB81014870601CC4B2D0
:102130000C2CEADB01A9284610F00EFB0646002411
:1021400025E004EB8400C0EB8410314901EB8000F2
:10215000C67004EB8400C0EB841001EB8000C078F3
:10216000022812D104EB8400C0EB841001EB800044
:10217000807850B9012004EB8401C1EB841100E0A8
:102180007BE1234A02EB81018870601CC4B20C2CF5
:10219000D7DB01A9284610F0DFFA0646002409E043
:1021A00004EB8400C0EB8410194901EB80008671B8
:1021B000601CC4B20C2CF3DB0024E6E001A9284625
:1021C00010F0CAFA04EB8401C1EB8411104A02EB4F
:1021D000810181F8E80001A9284610F0BDFA04EB5E
:1021E0008401C1EB841115E000000000C826002026
:1021F00074360120F0960020A0B00020440C00208E
:102200004C0C0020480C0020500C00203C0C0020FE
:10221000603D0120FA4A02EB8101C86604EB8400AC
:10222000C0EB8410114601EB8000407B20BB04EB27
:102230008400C0EB841001EB8000C06E01280DD13A
:1022400001A9284611F078FE04EB8400C0EB84104D
:10225000EB4901EB800080ED080A16E001A9284651
:1022600011F06AFE04EB8400C0EB8410E44901EB3A
:10227000800080ED040A08E001A9284611F05CFE08
:10228000BCEEC00A10EE100AC6B201A9284611F031
:1022900053FE04EB8400C0EB8410D94901EB8000AD
:1022A00080ED220A01A9284610F056FA0121C1EB5F
:1022B000400003280AD1011F04EB8400C0EB841006
:1022C000CF4A02EB8000C0F8D01009E0012104EBF6
:1022D0008400C0EB8410CA4A02EB8000C0F8D01022
:1022E00001A9284610F038FA0121C1EB400003286B
:1022F0000AD1011F04EB8400C0EB8410C04A02EB3A
:102300008000C0F8CC1009E0012104EB8400C0EB90
:102310008410BB4A02EB8000C0F8CC1001A928460B
:1023200010F01AFA01280AD1002104EB8400C0EB56
:102330008410B34A02EB8000C0F8D41009E00121F8
:1023400004EB8400C0EB8410AD4A02EB8000C0F8BF
:10235000D41001A9284611F0EFFD04EB8400C0EB76
:102360008410A74901EB800080ED1D0A01A92846D1
:1023700011F0E2FD04EB8400C0EB8410A04901EBF6
:10238000800080ED100A601CC4B2062CFFF616AF68
:1023900000246FE004EB8400C0EB8410984901EB4B
:1023A000800090ED040ADFED970AB4EEE00AF1EE4A
:1023B00010FA02D29FED930A1BE004EB8400C0EBFD
:1023C00084108F4901EB800090ED040ADFED8E0A46
:1023D000B4EEE00AF1EE10FA02DD9FED8B0A08E0A0
:1023E00004EB8400C0EB8410854901EB800090ED84
:1023F000040A04EB8400C0EB8410814901EB8000E7
:1024000080ED040A04EB8400C0EB84100A4602EB62
:10241000800090ED220A10EE101A0846FEF7C1FA6D
:1024200041EC190BB0EE490AF0EE690A0FF01CF905
:10243000B0EE408AF0EE608A9FED740B53EC102BE7
:1024400051EC180BFEF7D8FA09D2022104EB8400F4
:10245000C0EB84106A4A02EB8000816608E001212B
:1024600004EB8400C0EB8410654A02EB80008166B7
:10247000601CC4B20C2C8DDBF8E1A8788328FBD15A
:102480000120644908601FEDA80A634880ED000A36
:102490000120624908601FEDAC0A614880ED000A26
:1024A000A878604951F82000401CA9785D4A42F89C
:1024B000210001A9284610F04FF906460B2E02D143
:1024C00001205949086001A9284610F045F906463F
:1024D000BEB9002412E004EB8400C0EB841048492C
:1024E00001EB80008666012004EB8401C1EB8411BE
:1024F000434A02EB81014870601CC4B20C2CEADB39
:1025000016E0002412E0002104EB8400C0EB8410EC
:102510003B4A02EB80008166002004EB8401C1EBA2
:10252000841102EB81014870601CC4B20C2CEADB00
:1025300001A9284610F010F90646002423E004EB18
:102540008400C0EB84102E4901EB8000C67004EBC0
:102550008400C0EB841001EB8000C078022810D109
:1025600004EB8400C0EB841001EB8000807840B95C
:10257000012004EB8401C1EB8411214A02EB8101AB
:102580008870601CC4B20C2CD9DB0624E6E001A9DB
:10259000284610F0E1F804EB8401C1EB8411184ADD
:1025A00002EB810181F8E80001A9284610F0D4F877
:1025B00004EB8401C1EB8411114A02EB8101C8666E
:1025C00004EB8400C0EB8410114601EB8000407BDB
:1025D00060BB04EB8400C0EB841001EB8000C06E94
:1025E000012824D101A9284611F0A6FC04EB84009F
:1025F000C0EB8410024901EB800080ED080A2DE059
:10260000603D0120000032C3000032437B14AE471E
:10261000E17A843F440C00204C0C0020480C002040
:10262000500C0020743601203C0C00200DE001A964
:10263000284611F081FC04EB8400C0EB84108D4926
:1026400001EB800080ED040A08E001A9284611F0A2
:1026500073FCBCEEC00A10EE100AC6B201A92846EF
:1026600011F06AFC04EB8400C0EB8410814901EB9B
:10267000800080ED220A01A9284610F06DF80121A2
:10268000C1EB400003280AD1011F04EB8400C0EB1A
:102690008410784A02EB8000C0F8D01009E00121D4
:1026A00004EB8400C0EB8410724A02EB8000C0F897
:1026B000D01001A9284610F04FF80121C1EB4000CD
:1026C00003280AD1011F04EB8400C0EB8410694A7F
:1026D00002EB8000C0F8CC1009E0012104EB84007B
:1026E000C0EB8410634A02EB8000C0F8CC1001A953
:1026F000284610F031F801280AD1002104EB8400AB
:10270000C0EB84105B4A02EB8000C0F8D41009E0F3
:10271000012104EB8400C0EB8410564A02EB8000D8
:10272000C0F8D41001A9284611F006FC04EB84007F
:10273000C0EB84104F4901EB800080ED1D0A01A918
:10274000284611F0F9FB04EB8400C0EB84104949E2
:1027500001EB800080ED100A601CC4B20C2CFFF667
:1027600016AF00247FE004EB8400C0EB84104149E5
:1027700001EB800090ED040A5FED5E0AB4EEE00A22
:10278000F1EE10FA02D21FED610A1BE004EB8400A7
:10279000C0EB8410374901EB800090ED040A5FED37
:1027A000660AB4EEE00AF1EE10FA02DD1FED6A0AE5
:1027B00008E004EB8400C0EB84102E4901EB80009C
:1027C00090ED040A04EB8400C0EB8410294901EB6E
:1027D000800080ED040A04EB8400C0EB841001EB60
:1027E000800090ED220A04EB8400C0EB841001EB22
:1027F000800080ED090A04EB8400C0EB84100A46D7
:1028000002EB800090ED220A10EE101A0846FEF747
:10281000C8F841EC190BB0EE490AF0EE690A0EF067
:1028200023FFB0EE408AF0EE608A1FED880B53EC78
:10283000102B51EC180BFEF7DFF809D2022104EB44
:102840008400C0EB84100B4A02EB8000816608E034
:10285000012104EB8400C0EB8410064A02EB8000E7
:102860008166601CC4B20C2CFFF67DAF00BFFEF782
:102870007CBC0000603D012030B58BB004460D46A5
:102880000121042008F06EFD0121022008F04AFD1C
:1028900002220721274804F08BFC802009900220A7
:1028A0008DF8280003208DF8290000208DF82A00DB
:1028B00001208DF82B0009A91E4804F031FCA8B2B4
:1028C000ADF818000020ADF81A000794ADF820000C
:1028D00006A919480AF05CFD6020ADF8040001204B
:1028E000ADF806000220ADF810000120ADF806009A
:1028F0006008039001A910480AF03CFC08210E482A
:102900000AF08AFC01210C480AF0C4FB01210A48A4
:102910000AF0CCFB642011F037FA022008F056FAD6
:10292000642011F031FA002108460AF0A1FD0BB035
:1029300030BD0000000402400008004000BFFEE778
:10294000F0B52DED028B8BB004460D461646B0EE69
:10295000408A1F460121022008F0E4FC01214806BC
:1029600008F000FD4FF44070099002208DF8280017
:1029700000208DF82A0003208DF8290001208DF811
:102980002B0009A9384804F0CBFB0922082136485E
:1029900004F00EFC09221146334804F009FC002023
:1029A0008DF81E0001208DF81F008DF820000020FA
:1029B0008DF821008DF822008DF823008DF81A7013
:1029C0008DF81B408DF81C608DF81D50BCEEC80AB8
:1029D00010EE100A80B2ADF8180006A9234800F0E6
:1029E000BEFB00208DF812008DF8130001208DF839
:1029F00014000020ADF80800ADF80A00ADF80C0096
:102A0000ADF80E00ADF8100001208DF8150002A8F9
:102A100000F018FB01220221144800F097FB14205B
:102A20008DF8040001208DF805008DF806008DF862
:102A3000070001A807F048FE00224FF400410B48B0
:102A400000F084FB01220221084800F07FFB0221F4
:102A5000064800F0A3FA0121044800F09FFA002084
:102A60000BB0BDEC028BF0BD0004024000640040DE
:102A700070B586B001AA00217C4800F0FAFB7C49C1
:102A8000019808709DF80F0048709DF8100088703C
:102A90009DF81100C8709DF8120008719DF8130090
:102AA00048719DF8140088719DF81500C8719DF853
:102AB00016000872019C250904F00F00461E9DF8BF
:102AC0000C0000282AD19DF80C000028FAD19DF8AE
:102AD0000E00062803D09DF80E000828F2D19DF8BC
:102AE0000F00012803D09DF80F00112817D10DF118
:102AF0000F01604810F0D8F85E4890ED0B0A5E4870
:102B000080ED0F0A5B4890ED0D0A5B4880ED1B0AD3
:102B1000584890ED0F0A584880ED570AA4E09DF8F8
:102B20000F00022803D09DF80F00122818D10DF1D4
:102B30000F015048EC3010F0B7F84E4890ED460ABF
:102B40004D4880ED100A4B4890ED480A4A4880ED08
:102B50001C0A484890ED4A0A474880ED580A83E02D
:102B60009DF80F00032803D09DF80F00132817D1FC
:102B70000DF10F01414810F097F83E4890ED810AA1
:102B80003D4880ED110A3B4890ED830A3A4880EDBC
:102B90001D0A384890ED850A374880ED590A63E0F0
:102BA0009DF80F00042803D09DF80F00142818D1B9
:102BB0000DF10F013148EC3010F076F82D4890ED12
:102BC000BC0A2D4880ED120A2A4890EDBE0A2A4818
:102BD00080ED1E0A274890EDC00A274880ED5A0A6A
:102BE00042E09DF80F00052803D09DF80F0015283E
:102BF00017D10DF10F01224810F056F81D4890ED45
:102C0000F70A1D4880ED130A1A4890EDF90A1A4890
:102C100080ED1F0A174890EDFB0A174880ED5B0A0C
:102C200022E09DF80F00062803D09DF80F0016281B
:102C30001AD10DF10F011248EC3010F035F81048A0
:102C4000EC3090ED0B0A0C4880ED140A0C48EC3087
:102C500090ED0D0A084880ED200A0948EC3090ED0F
:102C60000F0A054880ED5C0A06B070BD00640040A4
:102C7000B0480120603D0120D4390120383F0120B7
:102C800010410120F0B52DED028B8BB004460D46AE
:102C90001646B0EE408A1F460121022008F042FB92
:102CA0000121880608F05EFB6020099002208DF863
:102CB000280000208DF82A0003208DF8290001202B
:102CC0008DF82B0009A9334804F02AFA09220521BE
:102CD000304804F06DFA092206212E4804F068FA03
:102CE00000208DF81E0001208DF81F008DF82000B7
:102CF00000208DF821008DF822008DF823008DF83A
:102D00001A708DF81B408DF81C608DF81D50BCEEBC
:102D1000C80A10EE100A80B2ADF8180006A91E48C5
:102D200000F01DFA0E208DF8120000208DF813001F
:102D300001208DF814000020ADF80800ADF80A005D
:102D4000ADF80C00ADF80E00ADF8100001208DF8C4
:102D5000150002A800F076F9012202210E4800F0C9
:102D6000F5F940208DF8040001208DF805008DF85C
:102D700006008DF8070001A807F0A6FC00224FF41A
:102D80000041054800F0E2F900200BB0BDEC028BD9
:102D9000F0BD0000000402400068004010B586B09D
:102DA000002401AA0021754800F063FA9FED740A1F
:102DB000744880ED000A9DF80C0000282AD19DF887
:102DC0000C000028FAD19DF80E00062803D09DF8CB
:102DD0000E000828F2D19DF80F00012803D09DF8BD
:102DE0000F00112817D10DF10F0167480FF05CFF9C
:102DF000654890ED0B0A654880ED150A624890ED34
:102E00000D0A624880ED210A5F4890ED0F0A5F4885
:102E100080ED5D0AAAE09DF80F00022803D09DF81E
:102E20000F0012281BD10DF10F015748EC300FF0A5
:102E30003BFF5548EC3090ED0B0A544880ED160AE4
:102E40005148EC3090ED0D0A504880ED220A4E4872
:102E5000EC3090ED0F0A4D4880ED5E0A86E09DF85B
:102E60000F00032803D09DF80F00132817D10DF190
:102E70000F0147480FF018FF454890ED0B0A4348F3
:102E800080ED170A424890ED0D0A404880ED230A74
:102E90003F4890ED0F0A3D4880ED5F0A66E09DF8DF
:102EA0000F00042803D09DF80F0014281BD10DF14A
:102EB0000F013748EC300FF0F7FE3548EC3090ED5D
:102EC0000B0A324880ED180A3148EC3090ED0D0ABB
:102ED0002E4880ED240A2E48EC3090ED0F0A2B4846
:102EE00080ED600A42E09DF80F00052803D09DF8B0
:102EF0000F00152817D10DF10F0126480FF0D4FE51
:102F0000244890ED0B0A214880ED190A214890EDE4
:102F10000D0A1E4880ED250A1E4890ED0F0A1B4839
:102F200080ED610A22E09DF80F00062803D09DF88D
:102F30000F0016281AD10DF10F011648EC300FF0D2
:102F4000B3FE1448EC3090ED0B0A104880ED1A0ADD
:102F50001048EC3090ED0D0A0C4880ED260A0D4823
:102F6000EC3090ED0F0A094880ED620A0A480068CB
:102F7000401C0949086006B010BD00000068004010
:102F8000000000000C0D0020E8420120D43901208F
:102F9000C044012098460120100D0020B1F5007FAB
:102FA0003AD00FDC202928D006DC01291CD00429C6
:102FB0001DD0082940D11DE0402921D0B1F5807FE6
:102FC0003AD126E0B1F5004F31D006DCB1F5806F83
:102FD00025D0B1F5006F2FD124E0B1F5803F12D09C
:102FE000B1F5003F28D111E0154A826025E00822A2
:102FF000C26022E01022C2601FE0082202611CE0D1
:103000001022026119E00822426016E0102242609C
:1030100013E00422426010E0042242600DE004222A
:1030200042600AE0002282610422426005E0002240
:1030300082610422426000E000BF00BF70470000D0
:103040000101010010B50021837A012202FA03F187
:103050003D4A126842F001023B4B1A603A4A1C3268
:1030600012688A43384B1C331A60027BCAB9364A4D
:103070000C3212688A43344B0C331A604288C3887E
:1030800042EA0343304A4032847A42F834300288BC
:10309000838842EA03432C4A4032847A02EBC4021A
:1030A0005360027B012A19D1274A0C3212680A4365
:1030B000254B0C331A604288038842EA0343224AB4
:1030C0004032847A42F83430C288838842EA03432B
:1030D0001D4A4032847A02EBC4025360C27A3AB984
:1030E000194A121D12688A43174B1B1D1A6006E00D
:1030F000154A121D12680A43134B1B1D1A600289E0
:1031000032B9114A143212688A430F4B14331A60D1
:103110000289012A06D10C4A143212680A430A4B6A
:1031200014331A60427B012A06D1074A1C32126806
:103130000A43054B1C331A60034A126822F001024D
:10314000014B1A6010BD0000006600401AB14369CF
:103150000B43436102E043698B434361704730B5E1
:10316000024600200023146824F00204146014684E
:1031700044F00104146000E05B1C546804F0010496
:103180001CB94FF6FF74A342F6D1546804F0010451
:103190000CB900206CE08C79012C04D1146844F047
:1031A0008004146003E0146824F080041460CC7977
:1031B000012C04D1146844F04004146003E0146846
:1031C00024F0400414600C7A012C04D1146844F0FB
:1031D0002004146003E0146824F0200414604C7A86
:1031E000012C04D1146844F01004146003E0146846
:1031F00024F0100414608C7A012C04D1146844F07B
:103200000804146003E0146824F008041460CC7A05
:10321000012C04D1146844F00404146003E0146821
:1032200024F0040414608C78A407CD7844EA056483
:103230000D7944EA05444D7944EA05540D886D1E24
:103240002C43D461146824F001041460002300E0CE
:103250005B1C546804F001041CB14FF6FF74A342D8
:10326000F6D1546804F001040CB1002000E0012004
:1032700030BD10B500F5D87303EB01131B6803F0E4
:1032800004031372137A53B900F5D87303EB0113D7
:103290001B6840F2FF7404EA5353136009E000F521
:1032A000D87303EB01131B686FF0604404EAD30387
:1032B000536000F5D87303EB01131B6803F002039E
:1032C000537200F5D87303EB01135B6803F00F032F
:1032D000937200F5D87303EB01135B681B0AD37478
:1032E00000F5D87303EB01139B68D37200F5D87314
:1032F00003EB01139B681C0A147300F5D87303EBEE
:1033000001139B681C0C547300F5D87303EB011375
:103310009B681B0E937300F5D87303EB0113DB68F6
:10332000D37300F5D87303EB0113DB681C0A147424
:1033300000F5D87303EB0113DB681C0C547400F523
:10334000D87303EB0113DB681B0E937421B9C368B8
:1033500043F02003C36003E0036943F020030361EB
:1033600010BD10B502460020936803F08063B3F1EE
:10337000806F00D110E0936803F00063B3F1006F39
:1033800001D1012008E0936803F08053B3F1805F1E
:1033900001D1022000E00420042874D002F5C0739B
:1033A00003EB00131B6803F0010402F5C07303EB89
:1033B00000131C600B7A7BB94B7A0C8843EA4453A8
:1033C00002F5C07404EB00142468234302F5C074B2
:1033D00004EB0014236010E00B7A4C6843EAC4034A
:1033E0004C7A234302F5C07404EB00142468234391
:1033F00002F5C07404EB001423608B7A03F00F0312
:103400008B7202F5C07303EB00135B6823F00F04AB
:1034100002F5C07303EB00135C6002F5C07303EBAD
:1034200000135B688C7A234302F5C07404EB00142C
:1034300063608B7B1C064B7B44EA03440B7B44EAB2
:103440000323CC7A234302F5C07404EB0014A36079
:103450008B7C1C064B7C44EA03440B7C44EA03232C
:10346000CC7B234302F5C07404EB0014E36002F547
:10347000C07303EB00131B6843F0010402F5C07333
:1034800003EB00131C6010BD10B50246002321B1F0
:10349000012907D002290FD109E090681D4C00EAEC
:1034A00004030BE090681C4C00EA040306E09068FB
:1034B0001A4C00EA040301E0002300BF00BF184CCF
:1034C000181BA34216D007DC83B16FF0806018444C
:1034D00070B1022818D111E0B0F5007F10D0114C66
:1034E000204448B1B0F5003F0ED10BE002230DE0BF
:1034F00000230BE0002309E0002307E0012305E09F
:10350000012303E0012301E0002300BF00BFD8B284
:1035100010BD0000030000040003000800000310B9
:10352000000100080001FFF700B500223AE000208A
:103530001E49087081F82A00012081F82C001046ED
:1035400011F0DCFEB0EE000A194800EB820080EDBD
:10355000000A02EB8200C0EB8210164901EB8000EA
:1035600080ED140AB7EE000A02EB8200C0EB821075
:1035700001EB800080ED100AB6EE000A02EB82003B
:10358000C0EB821001EB800080ED110A9FED0A0A6A
:1035900002EB8200C0EB821001EB800080ED130A89
:1035A000501CC2B20C2AC2DB00BD0000D43901207D
:1035B000203D0120603D0120CDCCCC3D70B52DEDEE
:1035C000028BB0EE408A002400251E48006810B12E
:1035D0001D480068B8B900240BE01C4890F82A0088
:1035E00004EB8401C1EB8411194A02F82100601C2C
:1035F000C4B20C2CF1DB154991F82A00B0EE480A50
:1036000011F024F91AE0002416E004EB8400C0EB6A
:1036100084100F4901EB8000407804EB8401C1EB7A
:1036200084110B4A02F8210011464878B0EE480A8E
:1036300011F00CF9601CC4B20C2CE6DBBDEC028B63
:1036400070BD0000440C0020480C0020D43901203B
:10365000603D012070B506460C4635460FE054F833
:103660002510C1F3074011F05DFE34F82510C1F3B9
:10367000072011F057FE14F8250011F053FE281E04
:10368000A5F10105EBD108F073FC70BD70B50646DD
:103690000C4635460FE054F82510C1F3074011F0F1
:1036A00054FE34F82510C1F3072011F04EFE14F833
:1036B000250011F04AFE281EA5F10105EBD108F006
:1036C00063FC70BD00B585B00121880307F04AFE98
:1036D000144808F071FF0020ADF80000ADF80200BA
:1036E000ADF80400ADF80600ADF80800ADF80A002A
:1036F0001020ADF80C000020ADF80E000720ADF84A
:1037000010006946074808F0BBFF01221146054832
:1037100008F048FF01220221024808F043FF05B0EB
:1037200000BD00000038004000B587B001218803CB
:1037300007F018FE0121022007F0F4FD05220D21FB
:103740002D4803F035FD05220E212B4803F030FDF6
:1037500005220F21284803F02BFD02208DF81800C8
:103760008DF8190000208DF81A0001208DF81B003B
:103770004003059005A9204803F0D2FC4FF4804097
:10378000059005A91C4803F0CBFC4FF400400590C0
:1037900005A9194803F0C4FC184808F00DFF0020E3
:1037A000ADF80000ADF80200ADF80400ADF8060079
:1037B000ADF808004FF40070ADF80A001020ADF825
:1037C0000C000020ADF80E000720ADF8100069468F
:1037D0000A4808F055FF01221146084808F0E2FEA9
:1037E00001220221054808F0DDFE0121034808F00E
:1037F000CDFE07B000BD00000004024000380040CC
:1038000010B50121480507F08DFD0E4800F03AFF84
:103810000C48183000F036FF00200B49C862032026
:1038200008630020486308624FF4806088610020CC
:1038300048628863C86148610448486000200860A5
:1038400010BD000058600240E8BA00200C3800406B
:1038500008B54FF400302B4988620020C8602A4820
:103860008860A6200861294801F012F84FF4003062
:10387000244988624020C86025488860A6200861E5
:103880002248183001F004F8012210211F4800F0EE
:10389000E1FF0E208DF8000001208DF801008DF869
:1038A00002008DF80300684606F00EFF0122102189
:1038B0001648183000F0CEFF0F208DF800000120D0
:1038C0008DF801008DF802008DF80300684606F0BF
:1038D000FBFE01210D4800F0C9FE01210B48183004
:1038E00000F0C4FE012211460A4808F05BFE0122E6
:1038F0000221084808F056FE0121064808F046FE5D
:1039000008BD0000E8BA00209CB9002058600240C1
:1039100042BA00200038004010B54FF0C0511048A6
:1039200000F070FE0F490E48183000F06BFE0021C9
:103930000B4800F09BFE00210948183000F096FE6D
:1039400000220121084808F02DFE0022022106482D
:1039500008F028FE0021044808F018FE10BD000001
:1039600058600240200000200038004070B5064634
:103970000C4604F08000802808D104F07F0000EBA2
:10398000800106F58E7000EBC10507E004F07F00B2
:1039900000EB800106F55D7000EBC10504F07F00CF
:1039A000287004F08000C0096870294630460CF089
:1039B00071FA002070BD70B506460C4604F0800018
:1039C000802808D104F07F0000EB800106F58E709E
:1039D00000EBC10505E004EB840106F55D7000EB2A
:1039E000C1050020A87004F07F002870C4F3C01047
:1039F0006870294630460CF025FA002070BD2DE98C
:103A0000F04106460D4690461F4605F0800080288E
:103A100008D105F07F0000EB800106F58E7000EB09
:103A2000C10407E005F07F0000EB800106F55D7042
:103A300000EBC10405F07F00207005F08000C00994
:103A40006070C4F80880E770607808B12078E08082
:103A5000022F01D100202071214630460CF0A6F93A
:103A60000020BDE8F0812DE9F04105460E461746DD
:103A7000984606F07F0000EB800105F55D7000EBD5
:103A8000C104E760C4F814800020A061607006F0F3
:103A90007F002070E878012800D12761207820B9C4
:103AA000214628460CF0A6F803E0214628460CF0F3
:103AB00052FA0020BDE8F08108B500220092009A79
:103AC00061F30A12009202691268009B1A430369AB
:103AD0001A6008BD70B506460C4604F080008028C8
:103AE00008D104F07F0000EB800106F58E7000EB3A
:103AF000C10505E004EB840106F55D7000EBC1052E
:103B00000120A87004F07F002870C4F3C010687012
:103B1000294630460CF0EDF9002070BD2DE9F0414A
:103B200007460D461646984605F07F0000EB8001DB
:103B300007F58E7000EBC1040120607005F07F0076
:103B40002070E66026610020A061C4F8148020780F
:103B500020B9214638460CF04DF803E0214638469E
:103B60000CF0F9F90020BDE8F08100007CB50546B5
:103B7000564C28460CF009F8E868C0680090009898
:103B800020F4705000900098E968C86028460CF056
:103B9000A5FB03280BD10020A8704FF40070A8806B
:103BA000009820F4705000F5105000907EE0012045
:103BB000A8704020A8804648844209D345488442E2
:103BC00006D2009820F4705000F5605000906DE02F
:103BD0004048844209D34048844206D2009820F4E9
:103BE000705000F55050009060E03B48844209D38B
:103BF0003A48844206D2009820F4705000F54050B4
:103C0000009053E03548844209D33548844206D2B7
:103C1000009820F4705000F53050009046E0304895
:103C2000844209D32F48844206D2009820F4705071
:103C300000F52050009039E02A48844209D32A48F0
:103C4000844206D2009820F4705000F51050009085
:103C50002CE02548844209D32448844206D20098A7
:103C600020F4705000F5005000901FE01F4884427F
:103C700009D31F48844206D2009820F4705000F502
:103C8000E050009012E01A48844209D31948844257
:103C900006D2009820F4705000F5C050009005E066
:103CA000009820F4705000F5A05000900098E9684A
:103CB000C86000200190019820F4005000F50050E9
:103CC00001900198E968486101207CBD00B0710B4A
:103CD000C0E1E4000024F400E0EC040100C318019A
:103CE000002D310140A44C0100366E0140E29501E7
:103CF00080C3C90160600B02F8B5054600240020AE
:103D0000009028460CF029FB064681E006F00100F1
:103D100000287BD0E1B2284600F0F6FA0090009827
:103D200000F0010030B3012000FA04F72869406B6D
:103D3000B8432969486300200090009820F00100F2
:103D4000401C009005F1180050F824000099816093
:103D5000E1B232480068426828469047E878012876
:103D600008D13CB940F21110405D042802D1284628
:103D70000BF0EBFF0098C0F3C00060B10020009092
:103D8000009820F008000830009005F1180050F865
:103D90002400009981600098C0F3001060B10020F9
:103DA0000090009820F010001030009005F11800ED
:103DB00050F82400009981600098C0F3801060B131
:103DC00000200090009820F040004030009005F165
:103DD000180050F82400009981600098C0F340005A
:103DE00060B100200090009820F00200801C00903C
:103DF00005F1180050F82400009981600098C0F384
:103E0000C01018B12146284600F092FA641C7608CA
:103E1000002E7FF47BAF0120F8BD0000700D002064
:103E20007CB5044600250020019020460CF09DFA48
:103E300006466FE006F00100002869D0E9B220468E
:103E40000CF09BFA0190019800F00100C8B300202B
:103E50000190019820F00100401C019004F15400F1
:103E600050F8250001998160E078012817D104F10C
:103E7000540050F825000069009005EB850104F519
:103E80005D7000EBC10080680099C1F31201411A16
:103E900005EB850204F55D7000EBC2008161E9B2BB
:103EA0001E480068026820469047E078012808D143
:103EB0003DB940F21110005D052802D120460BF0FB
:103EC00044FF0198C0F3400060B1002001900198C8
:103ED00020F00200801C019004F1540050F82500ED
:103EE000019981600198C0F3C00088B10B48006857
:103EF00081682046884700200190019820F0080042
:103F00000830019004F1540050F8250001998160B7
:103F10006D1C7608002E8DD101207CBD700D002017
:103F20003EB50446A07A78B1D4F80C010068009040
:103F3000009820F002000090009820F0010000900E
:103F40000099D4F80C01016000200190019820F044
:103F50000100401C01902069406801998843216953
:103F6000486009480068816920468847002002901F
:103F7000029820F0004000F1004002900298E168B1
:103F8000486101203EBD0000700D00207CB5044654
:103F900000200190019820F0100010300190E0689E
:103FA000806901998843E1688861E068006A00904F
:103FB000009800F00F0000EB800104F55D7000EB4D
:103FC000C1050098C0F3434007282DD2DFE800F078
:103FD0002C04051D1E2C1F0027E00098C0F30A10BA
:103FE00090B10098C0F30A122046E9680CF0CFF9AE
:103FF000E8680099C1F30A110844E860A8690099CB
:10400000C1F30A110844A8610FE00EE00DE0082298
:1040100004F2CC5120460CF0BAF9A8690099C1F31A
:104020000A110844A86100E000BF00BFE068806991
:1040300001990843E168886101207CBD38B50446D8
:1040400008480068C1682046884700200090009812
:1040500020F00800083000900098E16848610120D5
:1040600038BD0000700D00201FB5044600200090F0
:104070004FF48970005D0090234800684169204634
:10408000884720698068019000200390039820F4FD
:10409000006000F5006003900398E1684861A07A31
:1040A00070B3019800F0010050B340F21510005DAC
:1040B000012825D19DF80000032821D1002002907D
:1040C000029820F00100401C0290D4F80C01006816
:1040D00002990843D4F80C110860029820F00200FD
:1040E000801C0290D4F80C01006802990843D4F8AF
:1040F0000C1108600548006840F00600034908609C
:10410000012004B010BD0000700D002010ED00E093
:1041100030B587B0044600200290069005900490C8
:1041200003900190029820F00100401C0290206949
:1041300040680299884321694860002120460CF0BC
:10414000A3F800250BE0FF2104F1180050F825002A
:10415000816004F1540050F8250081606D1C607886
:10416000A842F0D84FF0FF312069816106986FF3C3
:104170000F00401C0690069880B200F58030069033
:1041800006992069C161059820F008000830059063
:10419000059820F00100401C0590059820F00200D1
:1041A000801C0590059920694161049820F0010068
:1041B000401C0490049820F00800083004900498F3
:1041C00020F00200801C049004992069016120699C
:1041D00000680390039820F4FE600390039920691F
:1041E000016020460BF0B1FD00200190019820F401
:1041F000805000F5805001900198E16848610448C2
:104200000068016920468847012007B030BD0000E2
:10421000700D00202DE9F04106460F463946304624
:104220000CF0CAF801214FF4897081550021801CDF
:104230008155002511E005EB850106F58E7000EB38
:10424000C104012060702570E5800020E0704020EE
:10425000A0600020E06060616D1C7078A842EAD820
:10426000002510E005EB850106F55D7000EBC1044B
:10427000002060702570E580E0704020A060002084
:10428000E06060616D1C7078A842EBD830460BF09E
:104290006BFC30460BF098FA002130460CF0F4F835
:1042A00030460BF024FB30460BF0B7FFBDE8F08141
:1042B00038B504460020009007480068C1692046D0
:1042C0008847009820F4801000F580100090009836
:1042D000E1684861012038BD700D002038B5044602
:1042E0000020009007480068016A2046884700982F
:1042F00020F4001000F5001000900098E16848617B
:10430000012038BD700D002030B5024615692B69BB
:1043100015696C6B24FA01F505F0010543EAC51334
:1043200002F1180555F82150AD6805EA030030BDCB
:104330002DE9F84306460F4600250020009007EBC4
:10434000870106F58E7000EBC104D4E90501451A1A
:10435000A068A84200D2A568E81C4FEA900806F1C0
:10436000180050F827008069009029E0D4E9050181
:10437000451AA068A84200D2A568E81C4FEA900838
:10438000ABB2FAB23046E1680CF0A5F8E068284418
:10439000E060A0692844A06106F1180050F82700E9
:1043A00080690090D4E90501884209D12178012073
:1043B00000FA01F93069406B20EA0900316948636D
:1043C000009880B2404506D9D4E90510884202D24F
:1043D00060690028CAD10120BDE8F88370B50026C5
:1043E0004A494B4800F004FA00287DD04749484824
:1043F00000F022F900224549454800F02BFA4548D3
:10440000007800287CD1002578E04348445D43488B
:10441000007838B9FE2C05D1012040490870404889
:1044200004706AE03D480078012807D1FC2C05D1D2
:1044300002203A4908703A4844705EE037480078F4
:10444000022809D1002C07DDF12C05DA03203349BD
:1044500008703348847050E03048007803280CD14D
:10446000FE2C0ADA04202D4908702D48C4702D480E
:10447000047000202C4908703FE028480078042888
:1044800019D128480078002815DD26480078401EFC
:10449000244908702448007823490978491C224A95
:1044A0001170001D1E490C541E48007808BB0520E1
:1044B0001A49087021E01948007805281AD100200F
:1044C0001649087018480078001D15490C5404203E
:1044D0001649086014480078401DC1B2104811F018
:1044E0003FFC1348006801E00EE009E0401C104961
:1044F000086002E00020094908706D1CA62D84DBCD
:10450000FFF70AFAFFF7A4F970BD00000080001859
:1045100058600240E8DD00209CB900209200002095
:1045200062BC0020980000209900002010010020AB
:104530001401002070B52DED028B00252549264879
:1045400000F056F9002842D02249234800F074F8C0
:1045500000222049204800F07DF92048007870BBF7
:1045600000201F494870102003F054F81D4880EDCA
:10457000000A90ED000A1C48D0ED000A30EE200A37
:1045800080ED000A0068FCF70CFA41EC180B9FED77
:10459000170B53EC102BFCF72FFA08D29FED150ADE
:1045A000114880ED000A242012F030FA02E01A20AF
:1045B00012F02CFA002010490860002405E006E003
:1045C0000E48005D0E490855641CA62CF8DBBDECB6
:1045D000028B70BD2080002070600240E8DD00206A
:1045E0001801002060BD0020B40000207B14AE47FD
:1045F000E17A943F00000000A800002064BB002086
:1046000042BA00200246094B9A4201D2084801E012
:104610000648103801F000531BB1064B0B40C36035
:1046200002E0044B0B4083607047000010640240BE
:10463000006002407D0F7D0F0246094B9A4201D275
:10464000084801E00648103801F000531BB1064B42
:104650000B40C36002E0044B0B40836070470000D6
:1046600010640240006002407D0F7D0F21B102689E
:1046700042F00102026003E0026822F001020260DF
:1046800070470000016821F0010101600021016014
:1046900041608160C1600161212141614A498842D4
:1046A00004D13D21484A103A91608CE046491831C6
:1046B000884205D14FF47461434A103A916082E018
:1046C00041493031884205D14FF474113E4A103AC5
:1046D000916078E03C494831884205D14FF07461DF
:1046E000394A103A91606EE037496031884204D10E
:1046F0003649354A103AD16065E03349783188420D
:1047000004D13349304A103AD1605CE02E499031EF
:10471000884204D12F492C4A103AD16053E02A49EB
:10472000A831884205D14FF03D51274A103AD16057
:1047300049E02949884204D13D21274A083A1160BD
:1047400041E025491831884205D14FF47461224A6D
:10475000083A116037E020493031884205D14FF4E2
:1047600074111D4A083A11602DE01B4948318842F6
:1047700005D14FF07461184A083A116023E01649D8
:104780006031884204D11149134A121F11601AE0A6
:1047900011497831884204D10D490F4A121F116026
:1047A00011E00D499031884204D10A490A4A121F8A
:1047B000116008E00849A831884204D14FF03D510A
:1047C000054A121F11607047106002403D00002032
:1047D000400F002000003D201064024001460020F0
:1047E0000A6802F001020AB1012000E000207047CF
:1047F00070B50246002000240025124EB24201D2BC
:10480000114B01E00F4B103B104E0E4036B11E26EF
:1048100006EAD124166806EA040502E0566906F0A5
:10482000800501F000560EB15C6800E01C68084E7F
:10483000344004EA010616B10DB1012000E0002069
:1048400070BD000010640240006002403C0F3C0F4D
:104850007D0F7D0F10B501F080034BB122B143698C
:1048600043F08003436103E0436923F08003436125
:1048700080290BD02AB1036801F01E042343036092
:1048800004E0036801F01E04A343036010BD0000B0
:1048900010B500220268134B1A40CC680B68234302
:1048A0004C6923438C692343CC6923430C6A23431B
:1048B0004C6A23438C6A23434C6B23438C6B234306
:1048C0001A430260426922F00702D1E90B34234304
:1048D0001A4342610B6943604B6883608B68C36015
:1048E00010BD00003F801CF0416070472DE9F04191
:1048F0002DED068B04460D460027B846002604E041
:10490000A05D3844C7B2701CC6B2681EB042F7DC66
:10491000601910F8018C601910F8010CB84206D02B
:10492000A078022803D0BDEC068BBDE8F08120788A
:10493000AA2802D16078AF2800D0F4E7A078012837
:104940007DD1F94981F813010020A1F814012079E3
:1049500008706079000200B2A1790843A038F249DA
:104960004860E079000200B2217A0843C0F1780083
:10497000ED498860607A000200B2A17A0843EA49F2
:104980004861E07A000200B2227B104300EE100A78
:10499000B8EEC00A10EE101A0846FCF702F841EC17
:1049A000190B9FEDE20B53EC102BFBF74EFF41EC84
:1049B000180BFCF739F8DC49C861607B000200B2D3
:1049C000A27B104300EE100AB8EEC00A10EE101AD7
:1049D0000846FBF7E6FF41EC190B9FEDD40B53ECB7
:1049E000102BFBF732FF41EC180BFCF71DF8CE49FA
:1049F0000862E07B000200B2227C104300EE100A45
:104A0000B8EEC00A10EE101A0846FBF7CAFF41ECD8
:104A1000190B9FEDC60B53EC102BFBF716FF41EC67
:104A2000180BFCF701F8C0494862607C000200B234
:104A3000A27C104300EE100AB8EEC00A00E04BE082
:104A400010EE101A0846FBF7ACFF41EC190B9FED76
:104A5000B70B53EC102BFBF7F8FE41EC180BFBF7F0
:104A6000E3FFB1498862E07C000200B2227D10437E
:104A700000EE100AB8EEC00A10EE101A0846FBF756
:104A800090FF41EC190B9FEDA90B53EC102BFBF79A
:104A9000DCFE41EC180BFBF7C7FFA349C862607D41
:104AA000000200B2A27D104300EE100AB8EEC00A68
:104AB00010EE101A0846FBF774FF41EC190B9FED3E
:104AC0009B0B53EC102BFBF7C0FE41EC180BFBF7D4
:104AD000ABFF9549086313E3A07803287ED1924980
:104AE00081F813010020A1F81401207981F8340025
:104AF0006079000200B2A1790843A0388A4988632E
:104B0000E079000200B2217A0843C0F178018648BA
:104B1000C163607A000200B2A17A084382498864C6
:104B2000E07A000200B2227B104300EE100AB8EED9
:104B3000C00A10EE101A0846FBF733FF41EC190BC0
:104B40009FED7A0B53EC102BFBF77FFE41EC180B1B
:104B5000FBF76AFF74490865607B000200B2A27B24
:104B6000104300EE100AB8EEC00A10EE101A084604
:104B7000FBF717FF41EC190B9FED6C0B53EC102B5F
:104B8000FBF763FE41EC180BFBF74EFF014666484E
:104B90004165E07B000200B2227C104300EE100A67
:104BA000B8EEC00A10EE101A0846FBF7FAFE41EC08
:104BB000190B9FED5E0B53EC102BFBF746FE41ECFF
:104BC000180BFBF731FF014657488165607C0002F6
:104BD00000B2A27C104300EE100A00E04FE0B8EEF5
:104BE000C00A10EE101A0846FBF7DBFE41EC190B69
:104BF0009FED4E0B53EC102BFBF727FE41EC180BEF
:104C0000FBF712FF4849C865E07C000200B2227D34
:104C1000104300EE100AB8EEC00A10EE101A084653
:104C2000FBF7BFFE41EC190B9FED400B53EC102B33
:104C3000FBF70BFE41EC180BFBF7F6FE01463A487A
:104C40000166607D000200B2A27D104300EE100AF2
:104C5000B8EEC00A10EE101A0846FBF7A2FE41ECAF
:104C6000190B9FED320B53EC102BFBF7EEFD41ECD3
:104C7000180BFBF7D9FE01462B48416640E2A078AD
:104C800004283AD1284981F813010020A1F8140121
:104C9000207981F89C006079000200B2A179084374
:104CA000C0F17D012048C0F8A010E079000200B2F8
:104CB000217A0843C0F13C011B48C0F8A410607A77
:104CC000000200B2A27A104300EE100AB8EEC00A49
:104CD00010EE101A0846FBF764FE41EC190B9FED2D
:104CE000130B53EC102BFBF7B0FD41EC180BFBF74B
:104CF0009BFE0D49C1F8B40002E2A078022819D148
:104D0000094981F813010020A1F81401207981F8E4
:104D1000680060798038C866A079C0F160010248F7
:104D20000167E179C167EBE1F81D01200000000097
:104D300000005940A0780B28A0D1F24981F8130156
:104D40000020A1F81401207981F811016079000296
:104D500000B2A279104300EE100AB8EEC00A10EEBD
:104D6000101A0846FBF71DFE41EC190B1FED110B45
:104D700053EC102BFBF769FD41EC180BFBF754FECD
:104D8000E049C1F8E800E079000200B2227A10435D
:104D900000EE100AB8EEC00A10EE101A0846FBF733
:104DA00000FE41EC190B1FED1F0B53EC102BFBF712
:104DB0004CFD41EC180BFBF737FED249C1F8EC0073
:104DC000607A000200B2A27A104300EE100AB8EE38
:104DD000C00A10EE101A0846FBF7E3FD41EC1A0B6F
:104DE0001FED2E0B53EC102BFBF72FFD41EC190B95
:104DF0009FEDC50B53EC102BFBF7B5FC41EC180BEA
:104E0000FBF712FEBF49C1F8F000E07A000200B2E1
:104E1000227B104300EE100AB8EEC00A10EE101A02
:104E20000846FBF7BEFD41EC190B9FEDB90B53ECA7
:104E3000102BFBF70AFD41EC180BFBF7F5FDB14910
:104E4000C1F80001607B000200B2A27B104300EEBB
:104E5000100AB8EEC00A10EE101A0846FBF7A1FDC2
:104E600041EC190B9FEDAA0B53EC102BFBF7EDFC5B
:104E700041EC180BFBF7D8FDA249C1F80401E07B17
:104E8000000200B2227C104300EE100AB8EEC00A05
:104E900010EE101A0846FBF784FD41EC190B9FED4C
:104EA0009C0B53EC102BFBF7D0FC41EC180BFBF7E1
:104EB000BBFD9449C1F80801607C000200B2A27CED
:104EC000104300EE100AB8EEC00A10EE101A0846A1
:104ED000FBF767FD41EC190B1FED6C0B53EC102B2E
:104EE000FBF7B3FC41EC180BFBF79EFD8549C1F8BD
:104EF000F400E07C000200B2227D104300EE100AB4
:104F0000B8EEC00A10EE101A0846FBF74AFD41EC55
:104F1000190B1FED7A0B53EC102BFBF796FC41ECB1
:104F2000180BFBF781FD7749C1F8F800607D00029E
:104F300000B2A27D104300EE100AB8EEC00A10EED7
:104F4000101A0846FBF72DFD41EC190B1FED890BDC
:104F500053EC102BFBF779FC41EC180BFBF764FDCD
:104F60006849C1F8FC00084690ED3A0A6A48D0ED5D
:104F7000000AF1EE600AB4EEE00AF1EE10FA04D293
:104F800090ED000AB1EE400A10E05E4890ED3A0A5A
:104F90006148D0ED000AB4EEE00AF1EE10FA02DD4D
:104FA00090ED000A02E0574890ED3A0A554880ED2E
:104FB0003A0A90ED3B0A5848D0ED000AF1EE600A3B
:104FC000B4EEE00AF1EE10FA04D290ED000AB1EE70
:104FD000400A10E04B4890ED3B0A4F48D0ED000AE4
:104FE000B4EEE00AF1EE10FA02DD90ED000A02E004
:104FF000444890ED3B0A434880ED3B0A90ED3C0A63
:105000004648D0ED000AF1EE600AB4EEE00AF1EE97
:1050100010FA04D290ED000AB1EE400A10E03948CF
:1050200090ED3C0A3D48D0ED000AB4EEE00AF1EE06
:1050300010FA02DD90ED000A02E0324890ED3C0AE1
:10504000304880ED3C0A90ED400AFBEE090AB4EED0
:10505000E00AF1EE10FA02D2BBEE090A0FE029488D
:1050600090ED400AF3EE090AB4EEE00AF1EE10FA10
:1050700002DDB3EE090A02E0224890ED400A214821
:1050800080ED400A90ED410AFBEE090AB4EEE00A19
:10509000F1EE10FA02D2BBEE090A0FE0194890EDCA
:1050A000410AF3EE090AB4EEE00AF1EE10FA02DD6D
:1050B000B3EE090A02E0134890ED410A114880ED71
:1050C000410A90ED420ADFED160AB4EEE00AF1EE75
:1050D00010FA02D29FED120A0FE00A4890ED420A40
:1050E000DFED100AB4EEE00AF1EE10FA02DD9FEDFA
:1050F0000D0A02E0034890ED420A024880ED420AA0
:1051000000BF10E4F81D01206666666666A64C4086
:10511000000000000000244024000020280000209F
:10512000000034C300003443704710B5044603E068
:105130004FF47A7000F005F8201EA4F10104F7D1B5
:1051400010BD30B5044602F03BFA054600BF02F040
:1051500037FA401BA042FAD330BD0000B0EE402A1F
:10516000F0EE422AF5EEC00AF1EE10FA04D9B5EEDF
:10517000C01AF1EE10FA01D8C0ED002ABDEEE03AF7
:10518000B7EE004AF4EEC40AF1EE10FA02D29FED37
:10519000650A9AE0B7EE004AF4EEC40AF1EE10FA9E
:1051A00009DBB1EE044AF4EEC40AF1EE10FA02D2C1
:1051B0009FED5D0A89E0B1EE044AF4EEC40AF1EE17
:1051C00010FA09DBB2EE044AF4EEC40AF1EE10FA6A
:1051D00002D29FED560A78E0B2EE044AF4EEC40A19
:1051E000F1EE10FA09DBB2EE0E4AF4EEC40AF1EE6B
:1051F00010FA02D29FED4E0A67E0B2EE0E4AF4EECC
:10520000C40AF1EE10FA09DBB3EE044AF4EEC40A64
:10521000F1EE10FA02D29FED470A56E0B3EE044ACF
:10522000F4EEC40AF1EE10FA09DBB3EE094AF4EE2B
:10523000C40AF1EE10FA02D29FED3F0A45E0B3EE48
:10524000094AF4EEC40AF1EE10FA09DBB3EE0E4A95
:10525000F4EEC40AF1EE10FA02D29FED380A34E0FF
:10526000B3EE0E4AF4EEC40AF1EE10FA09DB9FED3C
:10527000344AF4EEC40AF1EE10FA02D29FED310A7C
:1052800023E09FED2F4AF4EEC40AF1EE10FA09DB99
:105290009FED2D4AF4EEC40AF1EE10FA02D29FED12
:1052A0002B0A12E09FED284AF4EEC40AF1EE10FA40
:1052B00009DB9FED274AF4EEC40AF1EE10FA02D2A0
:1052C0009FED240A01E09FED240AF0EE401A31EE32
:1052D000214AC1EE044AF5EEC04AF1EE10FA02D2BC
:1052E0009FED1E4A11E071EE214A81EE244AF7EE4D
:1052F000004AB4EEE44AF1EE10FA02DDB7EE004ADD
:1053000003E071EE214A81EE244AF0EE443A90ED3A
:10531000004AD0ED004A72EEE44A04EEA34A80ED62
:10532000004A704784F9A23EAF4C593DBB41BA3C9C
:10533000AF4C593C4F63193CD70DED3BB827C13BEF
:10534000000048423661823B00008C42F3D62D3B80
:105350000000C8423661023B8A9BD03A0000000040
:1053600070B52DED0E8BB0EE40EA0446B0EE608ACB
:10537000B0EE419A1EEE105AB5EEC08AF1EE10FA68
:1053800004D9B5EEC09AF1EE10FA04D82846FBF71E
:1053900008FBC4E90001FDEEC8EAB7EE000AB4EE6E
:1053A000C08AF1EE10FA02D2DFED768A9AE0B7EE0B
:1053B000000AB4EEC08AF1EE10FA09DBB1EE040A7D
:1053C000B4EEC08AF1EE10FA02D2DFED6F8A89E006
:1053D000B1EE040AB4EEC08AF1EE10FA09DBB2EEC7
:1053E000040AB4EEC08AF1EE10FA02D2DFED678A49
:1053F00078E0B2EE040AB4EEC08AF1EE10FA09DBEE
:10540000B2EE0E0AB4EEC08AF1EE10FA02D2DFED6F
:10541000608A67E0B2EE0E0AB4EEC08AF1EE10FACE
:1054200009DBB3EE040AB4EEC08AF1EE10FA02D240
:10543000DFED588A56E0B3EE040AB4EEC08AF1EE0E
:1054400010FA09DBB3EE090AB4EEC08AF1EE10FAE5
:1054500002D2DFED518A45E0B3EE090AB4EEC08A0C
:10546000F1EE10FA09DBB3EE0E0AB4EEC08AF1EEEB
:1054700010FA02D2DFED498A34E0B3EE0E0AB4EE40
:10548000C08AF1EE10FA09DB9FED450AB4EEC08A3E
:10549000F1EE10FA02D2DFED438A23E09FED400ADD
:1054A000B4EEC08AF1EE10FA09DB9FED3F0AB4EECC
:1054B000C08AF1EE10FA02D2DFED3C8A12E09FEDD5
:1054C0003A0AB4EEC08AF1EE10FA09DB9FED380A11
:1054D000B4EEC08AF1EE10FA02D2DFED368A01E0B6
:1054E000DFED358AF0EE689AF0EE698A39EE280A27
:1054F000C9EE000AF5EEC00AF1EE10FA02D29FEDF5
:105500002F0A11E079EE290A89EE200AF7EE000A47
:10551000B4EEE00AF1EE10FA02DDB7EE000A03E0A5
:1055200079EE290A89EE200A10EE106A3046FBF760
:1055300038FA41EC1B0B2846FBF733FA41EC1D0B04
:1055400094ED001BB0EE410AF0EE610A53EC102B13
:10555000FBF703F941EC1C0B53EC1B2BFBF703F996
:1055600041EC1A0B94ED001BB0EE410AF0EE610A1B
:1055700053EC102BFBF750F8C4E90001BDEC0E8B87
:1055800070BD000084F9A23EAF4C593DBB41BA3C0E
:10559000AF4C593C4F63193CD70DED3BB827C13B8D
:1055A000000048423661823B00008C42F3D62D3B1E
:1055B0000000C8423661023B8A9BD03A00000000DE
:1055C00000B52DED028B8FB0FE48007810B9012098
:1055D000FC490870032002F01DF8FB4880ED030A27
:1055E0008DED0E0AF94880ED030AF948007C40B9B8
:1055F000F848006828B902F0FDFC9DED0E0A02F0A3
:105600000FF99DED0E0AB7EE001AC1EE000AF2483E
:105610000088F1490988491CEF4A118000EE100A00
:10562000B8EE400AF4EEC00AF1EE10FA7DD2E94875
:105630000068002879D14FF6FA70114608809DED78
:105640000E0AB0EE001AC0EE010ACDED070AE348DB
:1056500090ED150A8DED060A90ED140A8DED050A00
:1056600090ED130A8DED040A90ED1E0A8DED030AEC
:1056700090ED1D0A8DED020A90ED1C0A8DED010AD8
:10568000D74AD849D8489DED063ADDED052A9DED6B
:10569000042ADDED031A9DED021ADDED010A9DEDF0
:1056A000070A02F0DDFCCD48C06C0390FBF779F9E6
:1056B0009FEDCE0B53EC102BCDE904019DED040BB7
:1056C00051EC100BFBF7C1F8CDE906019DED060B7F
:1056D00051EC100BFBF7A8F90B90C048006D03903C
:1056E000FBF75FF99FEDC10B53EC102BCDE90401E3
:1056F0009DED040B51EC100BFBF7A7F8CDE906016B
:105700009DED060B51EC100BFBF78EF90C90B34896
:10571000406D0390FBF745F99FEDB40B53EC102B54
:10572000CDE904019DED040B00E0FDE351EC100B0D
:10573000FBF78BF8CDE906019DED060B51EC100B44
:10574000FBF772F90D909DED0C0AAA48D0ED020A04
:1057500020EE200ADDED0D0A90ED011A00EEC10ADF
:105760008DED080A9DED0D0AD0ED000A20EE200A0D
:10577000DDED0B0A90ED021A00EEC10A8DED090A6B
:1057800090ED020ADDED0D0A20EE200AD0ED000AB0
:105790009DED0B1A00EE810AD0ED010A9DED0C1A69
:1057A00000EE810AF7EE000A30EE600A8DED0A0A7B
:1057B00008980390FBF7F5F89FED8F0B53EC102B37
:1057C000CDE904019DED040B51EC100BFAF7CBFF72
:1057D000CDE906019DED060B51EC100BFBF724F90A
:1057E0008749C1F8C40209980390FBF7DAF89FEDE6
:1057F000820B53EC102BCDE904019DED040B51EC11
:10580000100BFAF7B0FFCDE906019DED060B51EC48
:10581000100BFBF709F97A49C1F8C8020A980390FE
:10582000FBF7BFF89FED740B53EC102BCDE904018F
:105830009DED040B51EC100BFAF795FFCDE9060135
:105840009DED060B51EC100BFBF7EEF86C49C1F81F
:10585000CC02654890ED000A084680ED5A0A61487E
:1058600090ED000AB1EE400A084680ED5B0A5C4804
:1058700090ED000A084680ED5C0A9DED0B0A80ED74
:10588000AD0A9DED0C0A80EDAE0A9DED0D0A80ED8E
:10589000AF0A90ED5C0A8DED070A9DED070A10F046
:1058A0003DFA5748D0EDAD0AF1EE600A20EE208AAD
:1058B000D0F870010590FBF774F8CDE906019DED75
:1058C000060B0DF0D1F94E48D0EDAE0A00EE808AFD
:1058D00080EDA98AD0F870010590FBF762F8CDE958
:1058E00006019DED060B0DF0BFF94548D0EDAD0A60
:1058F00020EE208A90ED5C0A8DED070A9DED070AE7
:1059000010F00CFA3E48D0EDAE0A00EE808A80ED31
:10591000AA8A90ED5A0A8DED070A9DED0E1A3948B4
:10592000D0ED000A38489DED070AFFF717FC344810
:1059300090ED5B0A8DED070A9DED0E1A3148D0ED12
:10594000000A3148001D9DED070AFFF707FC2C48AF
:1059500090ED5C0A8DED070A9DED0E1A2948D0EDF9
:10596000000A294808309DED070AFFF7F7FB9FED75
:10597000270A254880ED020A90ED000AB1EE400AA0
:105980008DED050A0598FBF70CF8CDE906019DEDB4
:10599000060B0DF069F9B0EE408A1B4890ED020A43
:1059A000B1EE400A8DED050A0598FAF7FAFFCDE948
:1059B00006019DED060B0DF057F928EE000A104880
:1059C00026E0000050000020ACB100206CB10020A7
:1059D000101F0120D821012052000020DC5201209C
:1059E000900E0020880E00208C0E00200000000089
:1059F0000000B040845201201F85EB51B89E234027
:105A0000C82600203400002060B300200000000001
:105A100080EDD40AFE4890ED010AB1EE400A8DED0A
:105A2000050A0598FAF7BDFFCDE906019DED060BC5
:105A30000DF01AF9B1EE408AF54890ED020AB1EE88
:105A4000400A8DED070A9DED070A10F067F928EE70
:105A5000008AEF4890ED000AB1EE400A8DED070A8A
:105A60009DED070A10F05AF9F0EE408AE84890EDF3
:105A7000010AB1EE400A8DED070A9DED070A10F00C
:105A80004DF968EE808AE24890ED020AB1EE400AD4
:105A90008DED050A0598FAF784FFCDE906019DED25
:105AA000060B0DF0E1F808EE808ADA4880EDD78A1F
:105AB000D74890ED010AB1EE400A8DED070A9DED41
:105AC000070A10F02BF9B0EE408AD14890ED020A97
:105AD000B1EE400A8DED070A9DED070A10F01EF9A0
